{
    "_format": "hh-sol-artifact-1",
    "contractName": "WavePortal",
    "sourceName": "contracts/WavePortal.sol",
    "abi": [
        {
            "inputs": [],
            "stateMutability": "nonpayable",
            "type": "constructor"
        },
        {
            "inputs": [],
            "name": "getTotalWaves",
            "outputs": [
                {
                    "internalType": "uint256",
                    "name": "",
                    "type": "uint256"
                }
            ],
            "stateMutability": "view",
            "type": "function"
        },
        {
            "inputs": [
                {
                    "internalType": "address",
                    "name": "waverAddress",
                    "type": "address"
                }
            ],
            "name": "getWaves",
            "outputs": [
                {
                    "internalType": "uint256",
                    "name": "",
                    "type": "uint256"
                }
            ],
            "stateMutability": "view",
            "type": "function"
        },
        {
            "inputs": [],
            "name": "wave",
            "outputs": [],
            "stateMutability": "nonpayable",
            "type": "function"
        }
    ],
    "bytecode": "0x608060405234801561001057600080fd5b5061003c6040518060600160405280603581526020016109826035913961004160201b6102381760201c565b6101c4565b6100dd816040516024016100559190610142565b6040516020818303038152906040527f41304fac000000000000000000000000000000000000000000000000000000007bffffffffffffffffffffffffffffffffffffffffffffffffffffffff19166020820180517bffffffffffffffffffffffffffffffffffffffffffffffffffffffff83818316178352505050506100e060201b60201c565b50565b60008151905060006a636f6e736f6c652e6c6f679050602083016000808483855afa5050505050565b600061011482610164565b61011e818561016f565b935061012e818560208601610180565b610137816101b3565b840191505092915050565b6000602082019050818103600083015261015c8184610109565b905092915050565b600081519050919050565b600082825260208201905092915050565b60005b8381101561019e578082015181840152602081019050610183565b838111156101ad576000848401525b50505050565b6000601f19601f8301169050919050565b6107af806101d36000396000f3fe608060405234801561001057600080fd5b50600436106100415760003560e01c806329dec6e1146100465780636fe15b44146100765780639a2cdc0814610080575b600080fd5b610060600480360381019061005b91906104e6565b61009e565b60405161006d9190610626565b60405180910390f35b61007e610133565b005b6100886101ed565b6040516100959190610626565b60405180910390f35b600080600160008473ffffffffffffffffffffffffffffffffffffffff1673ffffffffffffffffffffffffffffffffffffffff16815260200190815260200160002090506101266040518060400160405280601581526020017f2573206861732077617665642025642074696d657300000000000000000000008152508483600101546102d1565b8060010154915050919050565b6001600080828254610145919061065d565b925050819055506000600160003373ffffffffffffffffffffffffffffffffffffffff1673ffffffffffffffffffffffffffffffffffffffff168152602001908152602001600020905060018160010160008282546101a4919061065d565b925050819055506101ea6040518060400160405280600c81526020017f257320686173207761766564000000000000000000000000000000000000000081525033610370565b50565b60006102306040518060400160405280601781526020017f5765206861766520256420746f74616c2077617665732100000000000000000081525060005461040c565b600054905090565b6102ce8160405160240161024c9190610566565b6040516020818303038152906040527f41304fac000000000000000000000000000000000000000000000000000000007bffffffffffffffffffffffffffffffffffffffffffffffffffffffff19166020820180517bffffffffffffffffffffffffffffffffffffffffffffffffffffffff83818316178352505050506104a8565b50565b61036b8383836040516024016102e9939291906105b8565b6040516020818303038152906040527f07c81217000000000000000000000000000000000000000000000000000000007bffffffffffffffffffffffffffffffffffffffffffffffffffffffff19166020820180517bffffffffffffffffffffffffffffffffffffffffffffffffffffffff83818316178352505050506104a8565b505050565b6104088282604051602401610386929190610588565b6040516020818303038152906040527f319af333000000000000000000000000000000000000000000000000000000007bffffffffffffffffffffffffffffffffffffffffffffffffffffffff19166020820180517bffffffffffffffffffffffffffffffffffffffffffffffffffffffff83818316178352505050506104a8565b5050565b6104a482826040516024016104229291906105f6565b6040516020818303038152906040527f9710a9d0000000000000000000000000000000000000000000000000000000007bffffffffffffffffffffffffffffffffffffffffffffffffffffffff19166020820180517bffffffffffffffffffffffffffffffffffffffffffffffffffffffff83818316178352505050506104a8565b5050565b60008151905060006a636f6e736f6c652e6c6f679050602083016000808483855afa5050505050565b6000813590506104e081610762565b92915050565b6000602082840312156104f857600080fd5b6000610506848285016104d1565b91505092915050565b610518816106b3565b82525050565b600061052982610641565b610533818561064c565b93506105438185602086016106ef565b61054c81610751565b840191505092915050565b610560816106e5565b82525050565b60006020820190508181036000830152610580818461051e565b905092915050565b600060408201905081810360008301526105a2818561051e565b90506105b1602083018461050f565b9392505050565b600060608201905081810360008301526105d2818661051e565b90506105e1602083018561050f565b6105ee6040830184610557565b949350505050565b60006040820190508181036000830152610610818561051e565b905061061f6020830184610557565b9392505050565b600060208201905061063b6000830184610557565b92915050565b600081519050919050565b600082825260208201905092915050565b6000610668826106e5565b9150610673836106e5565b9250827fffffffffffffffffffffffffffffffffffffffffffffffffffffffffffffffff038211156106a8576106a7610722565b5b828201905092915050565b60006106be826106c5565b9050919050565b600073ffffffffffffffffffffffffffffffffffffffff82169050919050565b6000819050919050565b60005b8381101561070d5780820151818401526020810190506106f2565b8381111561071c576000848401525b50505050565b7f4e487b7100000000000000000000000000000000000000000000000000000000600052601160045260246000fd5b6000601f19601f8301169050919050565b61076b816106b3565b811461077657600080fd5b5056fea26469706673582212200163826a6033cc25c53b1ed075c108c90e38465168b25ddd1838c37b7b525c9664736f6c6343000804003349276d206265696e67206c6f676765642062792074686520636f6e7374727563746f72206f6666207468697320636f6e7472616374",
    "linkReferences": {},
    "deployedLinkReferences": {}
}